:1000000000000120290F0000510F0000530F0000D5
:10001000550F0000570F0000590F000000000000AE
:100020000000000000000000000000005B0F000066
:100030005D0F0000000000005F0F0000610F000076
:10004000630F0000630F0000950D0000630F0000B8
:10005000630F0000630F0000630F0000630F0000D8
:10006000630F0000630F0000090E0000630F000023
:10007000630F0000630F0000630F0000630F0000B8
:10008000630F0000630F0000630F0000630F0000A8
:10009000630F0000630F0000630F0000630F000098
:1000A000630F0000630F0000630F0000630F000088
:1000B000630F0000630F000000000000000000005C
:1000C000630F0000630F0000630F0000630F000068
:1000D000630F0000630F0000630F000000000000CA
:1000E0000000000000000000000000000000000010
:1000F0000000000000000000000000000000000000
:1001000000000000000000000000000000000000EF
:1001100000000000000000000000000000000000DF
:1004000010B5054C237833B9044B13B10448AFF34E
:1004100000800123237010BD800000200000000038
:10042000D01200000C4B43B10C480D4910B5AFF38E
:1004300000800C48036823B910BD0A48036833B92B
:100440007047094B002BF7D0BDE810401847064B0A
:10045000002BF5D0184700BF00000000D0120000AC
:10046000840000206C00002000000000154B002BD1
:1004700008BF134B9D46A3F5803A00218B460F46DB
:100480001348144A121A00F063F80F4B002B00D0E7
:1004900098470E4B002B00D0984700200021040005
:1004A0000D000D48002802D00C48AFF3008000F08A
:1004B0002BF82000290000F0C9FC00F011F800BF63
:1004C0000000080000000120000000000000000003
:1004D000800000200C02002000000000000000004E
:1004E00008B5074B044613B10021AFF30080054B5C
:1004F0001868836A03B19847204600F031F800BFBE
:10050000000000008C12000070B50D4E0D4CA41BB5
:10051000A4100025A54209D10B4E0C4C00F0AAFEF8
:10052000A41BA4100025A54205D170BD56F82530A6
:1005300098470135EEE756F8253098470135F2E740
:100540006400002064000020640000206800002097
:1005500002440346934200D1704703F8011BF9E7B8
:10056000FEE700BF0C4B1B78062B10D10B4B1B6812
:100570001A070CD10A4B186800F0F003302B08D092
:1005800000F0E000A0F140035842584170470020BD
:1005900070470120704700BFE00F00F0E40F00F04B
:1005A000E80F00F0094B1B78062B0CD1084B1B6899
:1005B0001A0708D1074B186800F0F000A0F13003CB
:1005C0005842584170470020704700BFE00F00F0CC
:1005D000E40F00F0E80F00F02DE9F04154681369D2
:1005E00006460F46154613F8012B002A44D12B7AF4
:1005F000002B45D12B78990703D5EA68102A41D101
:10060000023C13F0090F08D1A046B8F1000F3EDC00
:10061000631E002CACBF1C1B1C46297A09B1304656
:10062000B8472B789A070DD5EB68102B35D13021C0
:100630003046B8472B7813F0040F14BF58217821A7
:100640003046B8472B78DB0708D5A046B8F1000F35
:1006500027DC631E002CACBF1C1B1C46D5F8108089
:1006600018F8011B19BB2B7803F00903082B01D1E3
:10067000002C1FDCBDE8F081002CB8DD013CB2E7A6
:10068000013CB7E7082A08BF04F1FF34B9E720218D
:100690003046B84708F1FF38B7E7082BD2D13021F0
:1006A000CEE730213046B84708F1FF38CEE7304674
:1006B000B847D5E720213046B847013CD8E7F0B528
:1006C0000A69CC680123B0FBF3F5A54203D20026EA
:1006D0001BB91370F0BD6343F5E7B0FBF3F5CC68CD
:1006E00003FB1500B3FBF4F31EB9002D01DC002B56
:1006F000EED1092D02F101070ADD0C7814F0040F88
:1007000014BF372457242C44147001363A46DFE7CF
:100710003024F8E72DE9F84FD2F810A0D6688046CB
:100720008946934600270124002522462B46404651
:10073000494600F017FCB94208BFB04208D2002673
:1007400054EA05030CD100238AF80030BDE8F88F85
:1007500004FB07F306FB0533A4FB06451D44E4E751
:1007600022462B464046494600F0FCFB22462B46DB
:1007700049460746404600F0F5FB2046294690468C
:100780009946DBF80C20002300F0ECFB04460D46F4
:1007900026B9002F02DC54EA0503D1D1092F0AF152
:1007A00001020CDD9BF8003013F0040F14BF372357
:1007B00057231F448AF8007001369246C0E7302361
:1007C000F7E7084B08490022C3F82021A02202FBCA
:1007D0000010C3F84405D0F88020C3F84825012252
:1007E0009A60704700200040A000002070B52A4C9D
:1007F00094F84051EDB2012D22D094F84031002BF5
:100800000BBF0125002500220122D8B994F8403100
:100810002BB90120FFF7D5FF032384F8403194F86A
:100820004031022B05D10020FFF7CBFF012384F8D4
:100830004031A02303FB0544022384F8843070BDBB
:100840000022E2E7A02303FB0543D3F880007F28C2
:100850000BD8D3F880209954D3F880200132C3F804
:100860008020012283F8842070BD0C4E06EB4202EA
:10087000527894F840319A42FBD02846FFF7A1FF06
:10088000A02303FB054306EB4505022283F88420E1
:100890006B7884F8403170BDA000002090120000F9
:1008A0000FB42DE9F04F8DB0A44A16AC06AE54F843
:1008B000043BD2F86071D2F86481009405969146A9
:1008C00019785D1C49B90021D9F864310846984768
:1008D0000DB0BDE8F04F04B07047252902D038466E
:1008E000C0475CE09DF80420002302F0FC0263F3A3
:1008F000C3028DF8042002938DF80C309E461A46F0
:100900009C4618469A4615F8011B002949D128B182
:100910009DF804006AF3C3008DF804002AB19DF825
:1009200004206CF300028DF804202BB19DF80430F4
:100930006EF341038DF80430A1F13003092B11D877
:1009400000220A20A1F130035FFA83FEBEF1090FF5
:1009500036D9A1F16103052B37D8A1F157030A2B32
:100960002EDD02922E290BD19DF8043043F00103B5
:100970008DF8043015F8011BA1F13003092BF9D9CA
:100980007A2929D1297801350123692934D04BD816
:1009900058295CD02BD8002995D025299FD02B46EB
:1009A0008EE72D2906D0302907D02329AFD1012386
:1009B0009E46A8E701208246A5E701229446A2E7C9
:1009C00000FB023215F8011BBCE7A1F14103052B26
:1009D000C7D8A1F13703C2E76C2906D129786C2961
:1009E000D1D1697802230235CFE70023CDE763290F
:1009F00000F092806429D2D10A22022B049263D1A2
:100A0000073424F00703D3E90001002803F10804A8
:100A100071F1000306DA40424FF02D0361EB410112
:100A20008DF80C3001AA3AE073297BD00BD86F29DE
:100A300063D07029B3D19DF8043043F002038DF8E0
:100A40000430002303E075291DD07829A7D1102296
:100A50000492A1F15802514251419DF804200DF138
:100A6000300A61F38202022B0AF82C2D38D10734A8
:100A700024F007035246D3E9000103F10804FFF70D
:100A800049FE52460EE00A22022B04920FD107348F
:100A900024F00703D3E9000103F1080401AAFFF7DA
:100AA00039FE01AA41463846FFF796FD77E7012B4C
:100AB00001A9206804F1040A02D1FFF700FE01E059
:100AC000FFF7FDFD5446ECE720680028B8BF2D2352
:100AD00004F1040ABCBF40428DF80C3001A9ECE7D8
:100AE000012B5146206804F1040B03D1FFF7E7FD09
:100AF0005C46C6E7FFF7E3FDFAE7082301A9206893
:100B00000493FFF7DCFD01AA4146384604F1040ACC
:100B1000FFF762FD544642E72178384604F1040AA3
:100B2000C047F7E72368059301AA41463846FFF717
:100B300053FD04F1040A0596ECE700BFA000002075
:100B40004FF0A0430648D3F8042512F4802F4FF449
:100B500080220CBFC3F80825C3F80C25A0E600BF0F
:100B60009412000008B5FFF71DFD10B1784B794ACB
:100B70001A60FFF7F7FC28B1774B784A1B68C3F37C
:100B800042331360FFF70EFD20B1754AD36823F09E
:100B90008073D360FFF7E6FC40B14FF08043002242
:100BA000C3F80C21C3F81021C3F83825FFF7FAFC6D
:100BB00010B16C4B03221A60FFF7F4FC40B16A4B92
:100BC00005221A6001229A6700229A603F225A6029
:100BD000664B1B78062B09D1654B1B68190705D19D
:100BE000644B1B6803F0F003502B68D0FFF7BAFC8E
:100BF00028B1614B614A1B6803F04F031360604AE0
:100C0000D2F8883043F47003C2F88830BFF34F8FB6
:100C1000BFF36F8F4FF01023D3F80C22D2071ED5ED
:100C2000584B0122C3F80425D3F80024002AFBD036
:100C30004FF01022D2F80C3223F00103C2F80C322C
:100C4000504B1A46D3F800140029FBD00021C3F8FA
:100C50000415D2F80034002BFBD000F0E5F8D3F8EF
:100C60000022002A03DBD3F80432002B23DA454BA1
:100C70000122C3F80425D3F80024002AFBD04FF04A
:100C800010221521C2F80012D3F80024002AFBD04C
:100C90004FF010231522C3F804223A4B1A46D3F81A
:100CA00000140029FBD00021C3F80415D2F8003449
:100CB000002BFBD0D1E7344B344A1A6008BD4FF00B
:100CC0008052334BD2F80414C3F82015D2F808141C
:100CD000C3F82415D2F80C14C3F82815D2F8101450
:100CE000C3F82C15D2F81414C3F83015D2F8181420
:100CF000C3F83415D2F81C14C3F84015D2F82014E8
:100D0000C3F84415D2F82414C3F84815D2F82814AF
:100D1000C3F84C15D2F82C14C3F85015D2F830147F
:100D2000C3F85415D2F83414C3F86015D2F8381447
:100D3000C3F86415D2F83C14C3F86815D2F840140F
:100D4000C3F86C15D2F84424C3F870254EE700BFF1
:100D500074C007400DF0ADBA440200103C050040DD
:100D6000F0ED00E0A005004010560040E00F00F05C
:100D7000E40F00F0E80F00F058020010E40E00400D
:100D800000ED00E000E00140600000200090D00392
:100D900000C00040F8B5194BD3F8200101282BD131
:100DA0000021174CC3F82011D3F8202194F84021DA
:100DB000012A14BF01270F464FF0A00202FB07458E
:100DC00014BF0E46012602FB064285F88410C5F8C2
:100DD000801092F884200B4D022A08D105EB4605BD
:100DE0003046FFF7EEFC6B7884F84031F8BD15F81B
:100DF000172084F84021D860F8BD00BF00200040D3
:100E0000A000002090120000054BD3F8402112B141
:100E10000022C3F84021034BD3F86831184700BFC4
:100E200000A00040A0000020BFF34F8F0549064BF3
:100E3000CA6802F4E0621343CB60BFF34F8F00BF78
:100E4000FDE700BF00ED00E00400FA054FF0A0430D
:100E500002214FF4802280B5C3F84817C3F8082553
:100E60000322C3F848270026C3F818174021C3F807
:100E70000C15C3F81827C3F82067224B2249234FCB
:100E8000234C24480622C3F80C250822C3F8142555
:100E9000C3F82415C3F800251F4AC7F864210125AB
:100EA0004FF48072C7F860514FF00408C3F8042370
:100EB000C02384F80233C4F80080FFF7F1FC174B1D
:100EC000C7F86831164B17484FF480624FF48031F1
:100ED000C4F88020C4F88021DD60C3F81085C3F811
:100EE0000465C3F80865C3F80813C3F84005C3F8E0
:100EF00004132260202284F80A231D60C3F80052E4
:100F0000FEE700BF0020004000502700A0000020A6
:100F100000E100E0B2120000ED070000410B00000C
:100F200000A0004048C407000649074A074B9B1A27
:100F300003DD043BC858D050FBDCFFF713FEFFF77E
:100F400095FA0000DC120000000000208000002064
:100F5000FEE7FEE7FEE7FEE7FEE7FEE7FEE7FEE769
:100F6000FEE7FEE753B94AB9002908BF00281CBFB5
:100F70004FF0FF314FF0FF3000F07AB9ADF1080CBF
:100F80006DE904CE00F006F8DDF804E0DDE90223A7
:100F900004B070472DE9F0478C460D460446089E84
:100FA000002B51D18A4217466DD9B2FA82FEBEF1AA
:100FB000000F0BD0CEF1200C01FA0EF520FA0CFC3C
:100FC00002FA0EF74CEA050C00FA0EF44FEA174A43
:100FD000250CBCFBFAF81FFA87F90AFB18CC45EA86
:100FE0000C4508FB09F3AB420AD9ED1908F1FF32B1
:100FF00080F02381AB4240F22081A8F102083D44F9
:10100000ED1AA4B2B5FBFAF00AFB105544EA054408
:1010100000FB09F9A14509D9E41900F1FF3380F07B
:101020000A81A14540F2078102383C44A4EB09043F
:1010300040EA08400021002E61D024FA0EF400237B
:1010400034607360BDE8F0878B4207D9002E54D01E
:10105000002186E821000846BDE8F087B3FA83F155
:10106000002940F08E80AB4202D3824200F2FA8027
:10107000841A65EB03050120AC46002E3FD086E8BC
:101080001010BDE8F08712B90127B7FBF2F7B7FAE5
:1010900087FEBEF1000F34D1EB1B3A0C1FFA87FC20
:1010A0000121B3FBF2F8250C02FB183345EA034596
:1010B0000CFB08F3AB4207D9ED1908F1FF3002D25F
:1010C000AB4200F2D1808046ED1AA3B2B5FBF2F03C
:1010D00002FB105543EA05440CFB00FCA44507D96C
:1010E000E41900F1FF3302D2A44500F2B88018469B
:1010F000A4EB0C0440EA08409DE731463046BDE8C9
:10110000F087CEF1200405FA0EF307FA0EF720FA65
:1011100004F83A0C25FA04F448EA0308B4FBF2F1A7
:101120004FEA184502FB11441FFA87FC45EA0445C3
:1011300001FB0CF3AB4200FA0EF409D9ED1901F1F1
:10114000FF3080F08A80AB4240F2878002393D4414
:10115000EB1A1FFA88F5B3FBF2F002FB103345EAF5
:10116000034500FB0CF3AB4207D9ED1900F1FF3842
:101170006FD2AB426DD902383D44EB1A40EA0141CF
:101180008FE7C1F1200722FA07F88B4005FA01F436
:1011900048EA030320FA07FE4FEA134CFD404EEAEB
:1011A000040EB5FBFCF94FEA1E440CFB19551FFA5F
:1011B00083F844EA054509FB08F4AC4202FA01F25F
:1011C00000FA01FA08D9ED1809F1FF3043D2AC4218
:1011D00041D9A9F102091D442D1B1FFA8EFEB5FB52
:1011E000FCF00CFB10554EEA054400FB08F8A04546
:1011F00007D9E41800F1FF3529D2A04527D90238D4
:101200001C4440EA0940A4EB0804A0FB02894C45B9
:10121000C6464D4615D312D056B1BAEB0E0364EB59
:10122000050404FA07F7CB401F43CC4037607460D5
:101230000021BDE8F0871846F8E69046E0E6C24592
:10124000EAD2B8EB020E69EB03050138E4E7284661
:10125000D7E7404691E78146BEE7014678E7023886
:101260003C4445E7084608E7A8F102083D442BE75F
:10127000704700BFF8B500BFF8BC08BC9E46704779
:10128000F8B500BFF8BC08BC9E46704700000020BF
:10129000000102030A494E205448452043414C4C6A
:1012A000204241434B2046554E54494F4E2E2E214D
:1012B00021005072696E74662069732070726F70BD
:1012C000726C7920696E6974696C617A6965640011
:0412D000000000001A
:0812D40098F1FF7F010000000A
:1012DC000000000000000000000000000000000002
:1012EC0000000000000000000000000000000000F2
:1012FC0000000000000000000000000000000000E2
:10130C0000000000000000000000000000000000D1
:10131C0000000000000000000000000000000000C1
:10132C0000000000000000000000000000000000B1
:10133C000090D00325040000010400000000000010
:0400000300000F29C1
:00000001FF
