:1000000000000120650900008D0900008F09000033
:10001000910900009309000095090000000000000C
:100020000000000000000000000000009709000030
:1000300099090000000000009B0900009D090000D4
:100040009F0900009F090000250800009F0900008B
:100050009F0900009F0900009F0900009F09000000
:100060009F0900009F090000A50800009F090000EB
:100070009F0900009F0900009F0900009F090000E0
:100080009F0900009F0900009F0900009F090000D0
:100090009F0900009F0900009F0900009F090000C0
:1000A0009F0900009F0900009F0900009F090000B0
:1000B0009F0900009F0900000000000000000000F0
:1000C0009F0900009F0900009F0900009F09000090
:1000D0009F0900009F0900009F0900000000000028
:1000E0000000000000000000000000000000000010
:1000F0000000000000000000000000000000000000
:1001000000000000000000000000000000000000EF
:1001100000000000000000000000000000000000DF
:1004000010B5054C237833B9044B13B10448AFF34E
:1004100000800123237010BD800000200000000038
:10042000C00900000C4B43B10C480D4910B5AFF3A7
:1004300000800C48036823B910BD0A48036833B92B
:100440007047094B002BF7D0BDE810401847064B0A
:10045000002BF5D0184700BF00000000C0090000C5
:10046000840000206C00002000000000154B002BD1
:1004700008BF134B9D46A3F5803A00218B460F46DB
:100480001348144A121A00F063F80F4B002B00D0E7
:1004900098470E4B002B00D0984700200021040005
:1004A0000D000D48002802D00C48AFF3008000F08A
:1004B0002BF82000290000F017FA00F011F800BF17
:1004C0000000080000000120000000000000000003
:1004D0008000002004020020000000000000000056
:1004E00008B5074B044613B10021AFF30080054B5C
:1004F0001868836A03B19847204600F031F800BFBE
:1005000000000000B809000070B50D4E0D4CA41B92
:10051000A4100025A54209D10B4E0C4C00F040FA66
:10052000A41BA4100025A54205D170BD56F82530A6
:1005300098470135EEE756F8253098470135F2E740
:100540006400002064000020640000206800002097
:1005500002440346934200D1704703F8011BF9E7B8
:10056000FEE700BF0C4B1B78062B10D10B4B1B6812
:100570001A070CD10A4B186800F0F003302B08D092
:1005800000F0E000A0F140035842584170470020BD
:1005900070470120704700BFE00F00F0E40F00F04B
:1005A000E80F00F0094B1B78062B0CD1084B1B6899
:1005B0001A0708D1074B186800F0F000A0F13003CB
:1005C0005842584170470020704700BFE00F00F0CC
:1005D000E40F00F0E80F00F04FF0A043D3F804253B
:1005E00012F4802F4FF480220CBFC3F80825C3F803
:1005F0000C25704708B5FFF7D5FF10B1784B794A45
:100600001A60FFF7AFFF28B1774B784A1B68C3F336
:1006100042331360FFF7C6FF20B1754AD36823F059
:100620008073D360FFF79EFF40B14FF080430022FC
:10063000C3F80C21C3F81021C3F83825FFF7B2FF27
:1006400010B16C4B03221A60FFF7ACFF40B16A4B4C
:1006500005221A6001229A6700229A603F225A609E
:10066000664B1B78062B09D1654B1B68190705D112
:10067000644B1B6803F0F003502B68D0FFF772FF48
:1006800028B1614B614A1B6803F04F031360604A55
:10069000D2F8883043F47003C2F88830BFF34F8F2C
:1006A000BFF36F8F4FF01023D3F80C22D2071ED563
:1006B000584B0122C3F80425D3F80024002AFBD0AC
:1006C0004FF01022D2F80C3223F00103C2F80C32A2
:1006D000504B1A46D3F800140029FBD00021C3F870
:1006E0000415D2F80034002BFBD000F0EBF8D3F85F
:1006F0000022002A03DBD3F80432002B23DA454B17
:100700000122C3F80425D3F80024002AFBD04FF0BF
:1007100010221521C2F80012D3F80024002AFBD0C1
:100720004FF010231522C3F804223A4B1A46D3F88F
:1007300000140029FBD00021C3F80415D2F80034BE
:10074000002BFBD0D1E7344B344A1A6008BD4FF080
:100750008052334BD2F80414C3F82015D2F8081491
:10076000C3F82415D2F80C14C3F82815D2F81014C5
:10077000C3F82C15D2F81414C3F83015D2F8181495
:10078000C3F83415D2F81C14C3F84015D2F820145D
:10079000C3F84415D2F82414C3F84815D2F8281425
:1007A000C3F84C15D2F82C14C3F85015D2F83014F5
:1007B000C3F85415D2F83414C3F86015D2F83814BD
:1007C000C3F86415D2F83C14C3F86815D2F8401485
:1007D000C3F86C15D2F84424C3F870254EE700BF67
:1007E00074C007400DF0ADBA440200103C05004053
:1007F000F0ED00E0A005004010560040E00F00F0D2
:10080000E40F00F0E80F00F058020010E40E004082
:1008100000ED00E000E00140600000200090D00307
:1008200000C00040F0B51C4BD3F82051012D31D150
:1008300000241A49C3F82041D3F8202191F840211F
:10084000012A14BF012626464FF0A00202FB061023
:1008500014BF2746012702FB071280F88440C0F826
:10086000804092F8840002280D480ED1C3F8204140
:1008700000EB4700C3F84425D2F88020C3F8482590
:100880009D60437881F84031F0BD10F8162081F862
:100890004021DD60F0BD00BF00200040A00000202E
:1008A000BC090000054BD3F8402112B10022C3F867
:1008B0004021034BD3F86031184700BF00A000402F
:1008C000A0000020BFF34F8F0549064BCA6802F411
:1008D000E0621343CB60BFF34F8F00BFFDE700BF63
:1008E00000ED00E00400FA054FF0A0430222C3F837
:1008F00048274FF48022C3F808250322C3F848276D
:10090000134B144AC3F86021134B144A144D4FF48F
:10091000806001210424C2F88000C2F88001D960FF
:10092000C3F810450024C3F80445C3F808454FF444
:100930008034C3F80843C3F84055C3F8044310603B
:10094000202082F80A031960C3F80012FEE700BFF6
:10095000A0000020D905000000A0004000E100E058
:1009600048C407000649074A074B9B1A03DD043BAE
:10097000C858D050FBDCFFF73DFEFFF777FD0000C5
:10098000CC0900000000002080000020FEE7FEE708
:10099000FEE7FEE7FEE7FEE7FEE7FEE7FEE7FEE72F
:1009A000F8B500BFF8BC08BC9E467047F8B500BF5C
:1009B000F8BC08BC9E4670470000002000010203FE
:0409C0000000000033
:0809C400A8FAFF7F010000000A
:1009CC00000000000000000000000000000000001B
:1009DC00000000000000000000000000000000000B
:1009EC0000000000000000000000000000000000FB
:1009FC0000000000000000000000000000000000EB
:100A0C0000000000000000000000000000000000DA
:100A1C0000000000000000000000000000000000CA
:100A2C000090D00325040000010400000000000029
:04000003000009658B
:00000001FF
