:1000000000000120C5090000ED090000EF09000013
:10001000F1090000F3090000F509000000000000EC
:10002000000000000000000000000000F7090000D0
:10003000F909000000000000FB090000FD090000B4
:10004000FF090000FF09000035080000FF0900005B
:10005000FF090000FF090000FF090000FF09000080
:10006000FF090000FF090000B5080000FF090000BB
:10007000FF090000FF090000FF090000FF09000060
:10008000FF090000FF090000FF090000FF09000050
:10009000FF090000FF090000FF090000FF09000040
:1000A000FF090000FF090000FF090000FF09000030
:1000B000FF090000FF090000000000000000000030
:1000C000FF090000FF090000FF090000FF09000010
:1000D000FF090000FF090000FF0900000000000008
:1000E0000000000000000000000000000000000010
:1000F0000000000000000000000000000000000000
:1001000000000000000000000000000000000000EF
:1001100000000000000000000000000000000000DF
:1004000010B5054C237833B9044B13B10448AFF34E
:1004100000800123237010BD800000200000000038
:10042000200A00000C4B43B10C480D4910B5AFF346
:1004300000800C48036823B910BD0A48036833B92B
:100440007047094B002BF7D0BDE810401847064B0A
:10045000002BF5D0184700BF00000000200A000064
:10046000840000206C00002000000000154B002BD1
:1004700008BF134B9D46A3F5803A00218B460F46DB
:100480001348144A121A00F063F80F4B002B00D0E7
:1004900098470E4B002B00D0984700200021040005
:1004A0000D000D48002802D00C48AFF3008000F08A
:1004B0002BF82000290000F01FFA00F011F800BF0F
:1004C0000000080000000120000000000000000003
:1004D0008000002004020020000000000000000056
:1004E00008B5074B044613B10021AFF30080054B5C
:1004F0001868836A03B19847204600F031F800BFBE
:1005000000000000180A000070B50D4E0D4CA41B31
:10051000A4100025A54209D10B4E0C4C00F070FA36
:10052000A41BA4100025A54205D170BD56F82530A6
:1005300098470135EEE756F8253098470135F2E740
:100540006400002064000020640000206800002097
:1005500002440346934200D1704703F8011BF9E7B8
:10056000FEE700BF0C4B1B78062B10D10B4B1B6812
:100570001A070CD10A4B186800F0F003302B08D092
:1005800000F0E000A0F140035842584170470020BD
:1005900070470120704700BFE00F00F0E40F00F04B
:1005A000E80F00F0094B1B78062B0CD1084B1B6899
:1005B0001A0708D1074B186800F0F000A0F13003CB
:1005C0005842584170470020704700BFE00F00F0CC
:1005D000E40F00F0E80F00F0012303FA00F04FF001
:1005E000A043D3F8042510420CBFC3F80805C3F894
:1005F0000C05704708B51220FFF7EEFF1320BDE889
:100600000840E9E708B5FFF7CDFF10B1784B794A0C
:100610001A60FFF7A7FF28B1774B784A1B68C3F32E
:1006200042331360FFF7BEFF20B1754AD36823F051
:100630008073D360FFF796FF40B14FF080430022F4
:10064000C3F80C21C3F81021C3F83825FFF7AAFF1F
:1006500010B16C4B03221A60FFF7A4FF40B16A4B44
:1006600005221A6001229A6700229A603F225A608E
:10067000664B1B78062B09D1654B1B68190705D102
:10068000644B1B6803F0F003502B68D0FFF76AFF40
:1006900028B1614B614A1B6803F04F031360604A45
:1006A000D2F8883043F47003C2F88830BFF34F8F1C
:1006B000BFF36F8F4FF01023D3F80C22D2071ED553
:1006C000584B0122C3F80425D3F80024002AFBD09C
:1006D0004FF01022D2F80C3223F00103C2F80C3292
:1006E000504B1A46D3F800140029FBD00021C3F860
:1006F0000415D2F80034002BFBD000F0EBF8D3F84F
:100700000022002A03DBD3F80432002B23DA454B06
:100710000122C3F80425D3F80024002AFBD04FF0AF
:1007200010221521C2F80012D3F80024002AFBD0B1
:100730004FF010231522C3F804223A4B1A46D3F87F
:1007400000140029FBD00021C3F80415D2F80034AE
:10075000002BFBD0D1E7344B344A1A6008BD4FF070
:100760008052334BD2F80414C3F82015D2F8081481
:10077000C3F82415D2F80C14C3F82815D2F81014B5
:10078000C3F82C15D2F81414C3F83015D2F8181485
:10079000C3F83415D2F81C14C3F84015D2F820144D
:1007A000C3F84415D2F82414C3F84815D2F8281415
:1007B000C3F84C15D2F82C14C3F85015D2F83014E5
:1007C000C3F85415D2F83414C3F86015D2F83814AD
:1007D000C3F86415D2F83C14C3F86815D2F8401475
:1007E000C3F86C15D2F84424C3F870254EE700BF57
:1007F00074C007400DF0ADBA440200103C05004043
:10080000F0ED00E0A005004010560040E00F00F0C1
:10081000E40F00F0E80F00F058020010E40E004072
:1008200000ED00E000E00140600000200090D003F7
:1008300000C00040F0B51C4BD3F82051012D31D140
:1008400000241A49C3F82041D3F8202191F840210F
:10085000012A14BF012626464FF0A00202FB061013
:1008600014BF2746012702FB071280F88440C0F816
:10087000804092F8840002280D480ED1C3F8204130
:1008800000EB4700C3F84425D2F88020C3F8482580
:100890009D60437881F84031F0BD10F8162081F852
:1008A0004021DD60F0BD00BF00200040A00000201E
:1008B0001C0A0000054BD3F8402112B10022C3F8F6
:1008C0004021034BD3F86031184700BF00A000401F
:1008D000A0000020BFF34F8F0549064BCA6802F401
:1008E000E0621343CB60BFF34F8F00BFFDE700BF53
:1008F00000ED00E00400FA0508B54FF0A043022126
:100900004FF48022C3F848174FF40030C3F808258D
:100910000322C3F84827C3F84417C3F80C054FF463
:100920000020C3F84427C3F84C17C3F80805C3F8E0
:100930004C27C3F850174FF48011C3F80C15002151
:10094000C3F850271120C3F83417C3F83817FFF73E
:1009500043FE1420FFF740FE154B164AC3F86021F2
:10096000154B164A4FF4806401200425C2F88040DC
:10097000C2F88041D860C3F81055C3F80415104D73
:10098000C3F808154FF48031C3F80813C3F8405575
:10099000C3F804132021146082F80A131860C3F806
:1009A00000021120FFF718FE1420FFF715FEF8E7EC
:1009B000A0000020F505000000A0004000E100E0DC
:1009C00000CA9A3B0649074A074B9B1A03DD043BC2
:1009D000C858D050FBDCFFF715FEFFF747FD0000BD
:1009E0002C0A00000000002080000020FEE7FEE747
:1009F000FEE7FEE7FEE7FEE7FEE7FEE7FEE7FEE7CF
:100A0000F8B500BFF8BC08BC9E467047F8B500BFFB
:100A1000F8BC08BC9E46704700000020000102039D
:040A200000000000D2
:080A240048FAFF7F0100000009
:100A2C0000000000000000000000000000000000BA
:100A3C0000000000000000000000000000000000AA
:100A4C00000000000000000000000000000000009A
:100A5C00000000000000000000000000000000008A
:100A6C00000000000000000000000000000000007A
:100A7C00000000000000000000000000000000006A
:100A8C000090D003250400000104000000000000C9
:04000003000009C52B
:00000001FF
